:020000040000FA
:020000001528C1
:040002000034003492
:08000800A300030EA4000B1974
:100010000A2810280B11A60AA50A3D3081001028D5
:10002000240E8300A30E230E0900A601A50183164A
:10003000F030850003178801890103130E30810415
:10004000D730810583123D3081000B118B168B1741
:100050004920061829280108A900A8018618312876
:10006000332827103528271435283720292803302E
:10007000A90500302902031D013401302902031DA6
:10008000023402302902031D043403302902031D07
:100090000834031383120F3085006820A201850104
:1000A00000302202031905140130220203198514BD
:1000B00002302202031905150330220203198515A7
:1000C0007420A20A04302202031D4F288501080073
:1000D000742074207420742074200800F830A0006C
:1000E0000000A00B70280800C830A1006E20A10BF2
:1000F000762808000000000000000000000000005A
:020100000800F5
:02400E00F42F8D
:02401000FF3F70
:00000001FF
