:020000040000FA
:020000001528C1
:040002000034003492
:08000800A300030EA4000B1974
:100010000A2810280B11A60AA50A3D3081001028D5
:10002000240E8300A30E230E0900A601A50183164A
:10003000F030850003178801890103130E30810415
:10004000D730810583123D3081000B118B168B1741
:1000500050205F308400831306182C280108A90063
:10006000A80186183428362827103828271438285D
:100070003B204D202C280330A90500302902031D08
:10008000013401302902031D023402302902031D0C
:10009000043403302902031D08348000840A080058
:1000A000031383120F3085006F20A20185010030F9
:1000B00022020319051401302202031985140230AB
:1000C00022020319051503302202031985157B202E
:1000D000A20A04302202031D5628850108007B2055
:1000E0007B207B207B207B200800F830A0000000D4
:1000F000A00B77280800C830A1007520A10B7D282F
:1001000008000000000000000000000000000800DF
:02400E00F42F8D
:02401000FF3F70
:00000001FF
