:020000040000FA
:020000001528C1
:040002000034003492
:08000800A300030EA4000B1974
:100010000A2810280B11A60AA50A3D3081001028D5
:10002000240E8300A30E230E0900A601A50183164A
:10003000F030850003178801890103130E30810415
:10004000D730810583123D3081000B118B168B1741
:1000500072205F3084008313AA01AB0106182E289A
:100060000108A900A80186183628382827103A2840
:1000700027143A283D204F202E280330A9050030B0
:100080002902031D013401302902031D023402300C
:100090002902031D043403302902031D08348000A3
:1000A000840AAA0A080083120313AB015F3084009C
:1000B00008080F398002031D5E2861282C1C58286F
:1000C0000800AD006D20003C03190800AB0A840A4B
:1000D000AB082A020318080058282D300002031D1F
:1000E00000342D34031383120F3085009120A201B8
:1000F0008501003022020319051401302202031980
:100100008514023022020319051503302202031957
:1001100085159D20A20A04302202031D782885013E
:1001200008009D209D209D209D209D200800F830E6
:10013000A0000000A00B99280800C830A10097205B
:10014000A10B9F2808000000000000000000000034
:0401500000000800A3
:02400E00F42F8D
:02401000FF3F70
:00000001FF
