:020000040000FA
:020000000428D2
:040002000034003492
:080008008316F0308500031798
:1000100088010B200928031383120F3085002A2042
:10002000A0018501003020020319051401302002CF
:10003000031985140230200203190515033020022C
:10004000031985153620A00A04302002031D11284B
:10005000850108003620362036203620362008005C
:10006000F830A1000000A10B32280800C830A2001F
:100070003020A20B3828080000000000000000001B
:0600800000000000080072
:00000001FF
